{
  "_format": "hh-sol-artifact-1",
  "contractName": "Shield",
  "sourceName": "contracts/Shield.sol",
  "abi": [
    {
      "anonymous": false,
      "inputs": [
        {
          "indexed": true,
          "internalType": "bytes32",
          "name": "policyId",
          "type": "bytes32"
        },
        {
          "indexed": true,
          "internalType": "address",
          "name": "sender",
          "type": "address"
        },
        {
          "indexed": true,
          "internalType": "address",
          "name": "recipient",
          "type": "address"
        },
        {
          "indexed": false,
          "internalType": "uint256",
          "name": "expiry",
          "type": "uint256"
        },
        {
          "indexed": false,
          "internalType": "uint256",
          "name": "maxAttempts",
          "type": "uint256"
        }
      ],
      "name": "PolicyCreated",
      "type": "event"
    },
    {
      "anonymous": false,
      "inputs": [
        {
          "indexed": true,
          "internalType": "bytes32",
          "name": "policyId",
          "type": "bytes32"
        },
        {
          "indexed": false,
          "internalType": "bool",
          "name": "success",
          "type": "bool"
        }
      ],
      "name": "VerificationAttempt",
      "type": "event"
    },
    {
      "inputs": [
        {
          "internalType": "bytes32",
          "name": "policyId",
          "type": "bytes32"
        },
        {
          "internalType": "address",
          "name": "recipient",
          "type": "address"
        },
        {
          "internalType": "uint256",
          "name": "expiry",
          "type": "uint256"
        },
        {
          "internalType": "uint256",
          "name": "maxAttempts",
          "type": "uint256"
        }
      ],
      "name": "createPolicy",
      "outputs": [],
      "stateMutability": "nonpayable",
      "type": "function"
    },
    {
      "inputs": [
        {
          "internalType": "bytes32",
          "name": "policyId",
          "type": "bytes32"
        }
      ],
      "name": "isPolicyValid",
      "outputs": [
        {
          "internalType": "bool",
          "name": "",
          "type": "bool"
        }
      ],
      "stateMutability": "view",
      "type": "function"
    },
    {
      "inputs": [
        {
          "internalType": "bytes32",
          "name": "policyId",
          "type": "bytes32"
        },
        {
          "internalType": "bool",
          "name": "success",
          "type": "bool"
        }
      ],
      "name": "logAttempt",
      "outputs": [],
      "stateMutability": "nonpayable",
      "type": "function"
    },
    {
      "inputs": [
        {
          "internalType": "bytes32",
          "name": "",
          "type": "bytes32"
        }
      ],
      "name": "policies",
      "outputs": [
        {
          "internalType": "address",
          "name": "sender",
          "type": "address"
        },
        {
          "internalType": "address",
          "name": "recipient",
          "type": "address"
        },
        {
          "internalType": "uint64",
          "name": "expiry",
          "type": "uint64"
        },
        {
          "internalType": "uint32",
          "name": "maxAttempts",
          "type": "uint32"
        },
        {
          "internalType": "uint32",
          "name": "attempts",
          "type": "uint32"
        },
        {
          "internalType": "bool",
          "name": "valid",
          "type": "bool"
        }
      ],
      "stateMutability": "view",
      "type": "function"
    }
  ],
  "bytecode": "0x608060405234801561001057600080fd5b50610e8b806100206000396000f3fe608060405234801561001057600080fd5b506004361061004c5760003560e01c80633ee9af6814610051578063b856cd661461006d578063c2cbe3ac14610089578063ddbfd8ef146100b9575b600080fd5b61006b600480360381019061006691906108bf565b6100ee565b005b61008760048036038101906100829190610993565b61042d565b005b6100a3600480360381019061009e91906109fa565b6106f2565b6040516100b09190610a36565b60405180910390f35b6100d360048036038101906100ce91906109fa565b61078f565b6040516100e596959493929190610aa2565b60405180910390f35b60008060008481526020019081526020016000209050600073ffffffffffffffffffffffffffffffffffffffff168160000160009054906101000a900473ffffffffffffffffffffffffffffffffffffffff1673ffffffffffffffffffffffffffffffffffffffff1603610197576040517f08c379a000000000000000000000000000000000000000000000000000000000815260040161018e90610b60565b60405180910390fd5b8060020160049054906101000a900460ff166101e8576040517f08c379a00000000000000000000000000000000000000000000000000000000081526004016101df90610bcc565b60405180910390fd5b8060010160009054906101000a900473ffffffffffffffffffffffffffffffffffffffff1673ffffffffffffffffffffffffffffffffffffffff163373ffffffffffffffffffffffffffffffffffffffff161461027a576040517f08c379a000000000000000000000000000000000000000000000000000000000815260040161027190610c5e565b60405180910390fd5b8060010160149054906101000a900467ffffffffffffffff1667ffffffffffffffff1642106102de576040517f08c379a00000000000000000000000000000000000000000000000000000000081526004016102d590610cca565b60405180910390fd5b80600101601c9054906101000a900463ffffffff1663ffffffff168160020160009054906101000a900463ffffffff1663ffffffff1610610354576040517f08c379a000000000000000000000000000000000000000000000000000000000815260040161034b90610d36565b60405180910390fd5b80600201600081819054906101000a900463ffffffff168092919061037890610d85565b91906101000a81548163ffffffff021916908363ffffffff1602179055505080600101601c9054906101000a900463ffffffff1663ffffffff168160020160009054906101000a900463ffffffff1663ffffffff16106103f05760008160020160046101000a81548160ff0219169083151502179055505b827f2e4756fcacb657b5312626a687937a8c8ef03c008aea6a39d8351b6703781313836040516104209190610a36565b60405180910390a2505050565b600073ffffffffffffffffffffffffffffffffffffffff1660008086815260200190815260200160002060000160009054906101000a900473ffffffffffffffffffffffffffffffffffffffff1673ffffffffffffffffffffffffffffffffffffffff16146104d1576040517f08c379a00000000000000000000000000000000000000000000000000000000081526004016104c890610dfd565b60405180910390fd5b6040518060c001604052803373ffffffffffffffffffffffffffffffffffffffff1681526020018473ffffffffffffffffffffffffffffffffffffffff1681526020018367ffffffffffffffff1681526020018263ffffffff168152602001600063ffffffff1681526020016001151581525060008086815260200190815260200160002060008201518160000160006101000a81548173ffffffffffffffffffffffffffffffffffffffff021916908373ffffffffffffffffffffffffffffffffffffffff16021790555060208201518160010160006101000a81548173ffffffffffffffffffffffffffffffffffffffff021916908373ffffffffffffffffffffffffffffffffffffffff16021790555060408201518160010160146101000a81548167ffffffffffffffff021916908367ffffffffffffffff160217905550606082015181600101601c6101000a81548163ffffffff021916908363ffffffff16021790555060808201518160020160006101000a81548163ffffffff021916908363ffffffff16021790555060a08201518160020160046101000a81548160ff0219169083151502179055509050508273ffffffffffffffffffffffffffffffffffffffff163373ffffffffffffffffffffffffffffffffffffffff16857f0acaae428e14c48da7ced6b1bc1c17b87a269b763624b5b052bf0df41009618085856040516106e4929190610e2c565b60405180910390a450505050565b60008060008084815260200190815260200160002090508060020160049054906101000a900460ff16801561074857508060010160149054906101000a900467ffffffffffffffff1667ffffffffffffffff1642105b8015610787575080600101601c9054906101000a900463ffffffff1663ffffffff168160020160009054906101000a900463ffffffff1663ffffffff16105b915050919050565b60006020528060005260406000206000915090508060000160009054906101000a900473ffffffffffffffffffffffffffffffffffffffff16908060010160009054906101000a900473ffffffffffffffffffffffffffffffffffffffff16908060010160149054906101000a900467ffffffffffffffff169080600101601c9054906101000a900463ffffffff16908060020160009054906101000a900463ffffffff16908060020160049054906101000a900460ff16905086565b600080fd5b6000819050919050565b61086481610851565b811461086f57600080fd5b50565b6000813590506108818161085b565b92915050565b60008115159050919050565b61089c81610887565b81146108a757600080fd5b50565b6000813590506108b981610893565b92915050565b600080604083850312156108d6576108d561084c565b5b60006108e485828601610872565b92505060206108f5858286016108aa565b9150509250929050565b600073ffffffffffffffffffffffffffffffffffffffff82169050919050565b600061092a826108ff565b9050919050565b61093a8161091f565b811461094557600080fd5b50565b60008135905061095781610931565b92915050565b6000819050919050565b6109708161095d565b811461097b57600080fd5b50565b60008135905061098d81610967565b92915050565b600080600080608085870312156109ad576109ac61084c565b5b60006109bb87828801610872565b94505060206109cc87828801610948565b93505060406109dd8782880161097e565b92505060606109ee8782880161097e565b91505092959194509250565b600060208284031215610a1057610a0f61084c565b5b6000610a1e84828501610872565b91505092915050565b610a3081610887565b82525050565b6000602082019050610a4b6000830184610a27565b92915050565b610a5a8161091f565b82525050565b600067ffffffffffffffff82169050919050565b610a7d81610a60565b82525050565b600063ffffffff82169050919050565b610a9c81610a83565b82525050565b600060c082019050610ab76000830189610a51565b610ac46020830188610a51565b610ad16040830187610a74565b610ade6060830186610a93565b610aeb6080830185610a93565b610af860a0830184610a27565b979650505050505050565b600082825260208201905092915050565b7f506f6c69637920646f6573206e6f742065786973740000000000000000000000600082015250565b6000610b4a601583610b03565b9150610b5582610b14565b602082019050919050565b60006020820190508181036000830152610b7981610b3d565b9050919050565b7f506f6c696379206973206e6f742076616c696400000000000000000000000000600082015250565b6000610bb6601383610b03565b9150610bc182610b80565b602082019050919050565b60006020820190508181036000830152610be581610ba9565b9050919050565b7f4f6e6c792074686520726563697069656e742063616e206c6f6720616e20617460008201527f74656d7074000000000000000000000000000000000000000000000000000000602082015250565b6000610c48602583610b03565b9150610c5382610bec565b604082019050919050565b60006020820190508181036000830152610c7781610c3b565b9050919050565b7f506f6c6963792068617320657870697265640000000000000000000000000000600082015250565b6000610cb4601283610b03565b9150610cbf82610c7e565b602082019050919050565b60006020820190508181036000830152610ce381610ca7565b9050919050565b7f4d617820617474656d7074732072656163686564000000000000000000000000600082015250565b6000610d20601483610b03565b9150610d2b82610cea565b602082019050919050565b60006020820190508181036000830152610d4f81610d13565b9050919050565b7f4e487b7100000000000000000000000000000000000000000000000000000000600052601160045260246000fd5b6000610d9082610a83565b915063ffffffff8203610da657610da5610d56565b5b600182019050919050565b7f506f6c69637920616c7265616479206578697374730000000000000000000000600082015250565b6000610de7601583610b03565b9150610df282610db1565b602082019050919050565b60006020820190508181036000830152610e1681610dda565b9050919050565b610e268161095d565b82525050565b6000604082019050610e416000830185610e1d565b610e4e6020830184610e1d565b939250505056fea2646970667358221220be7f1c41add9b31bc3461236f3927ea41752303791fdaf8f7881a4e6f1d1d6f464736f6c63430008180033",
  "linkReferences": {},
  "deployedLinkReferences": {}
}